{
  "contractName": "Counter",
  "abi": [
    {
      "inputs": [],
      "name": "counter",
      "outputs": [
        {
          "internalType": "uint256",
          "name": "",
          "type": "uint256"
        }
      ],
      "stateMutability": "view",
      "type": "function",
      "constant": true
    },
    {
      "inputs": [],
      "name": "increment",
      "outputs": [
        {
          "internalType": "uint256",
          "name": "",
          "type": "uint256"
        }
      ],
      "stateMutability": "nonpayable",
      "type": "function"
    },
    {
      "inputs": [],
      "name": "decrement",
      "outputs": [
        {
          "internalType": "uint256",
          "name": "",
          "type": "uint256"
        }
      ],
      "stateMutability": "nonpayable",
      "type": "function"
    }
  ],
  "bytecode": "0x6080604052601760005534801561001557600080fd5b50610207806100256000396000f3fe608060405234801561001057600080fd5b50600436106100415760003560e01c80632baeceb71461004657806361bc221a14610064578063d09de08a14610082575b600080fd5b61004e6100a0565b60405161005b91906100fd565b60405180910390f35b61006c6100bf565b60405161007991906100fd565b60405180910390f35b61008a6100c5565b60405161009791906100fd565b60405180910390f35b600060016000546100b19190610147565b600081905550600054905090565b60005481565b600060016000546100d6919061017b565b600081905550600054905090565b6000819050919050565b6100f7816100e4565b82525050565b600060208201905061011260008301846100ee565b92915050565b7f4e487b7100000000000000000000000000000000000000000000000000000000600052601160045260246000fd5b6000610152826100e4565b915061015d836100e4565b9250828210156101705761016f610118565b5b828203905092915050565b6000610186826100e4565b9150610191836100e4565b9250827fffffffffffffffffffffffffffffffffffffffffffffffffffffffffffffffff038211156101c6576101c5610118565b5b82820190509291505056fea26469706673582212202c02ee81a24781bda0dafbf7268d844a8294670c13e1f84e47acd55008fdc0d564736f6c634300080c0033",
  "immutableReferences": {},
  "source": "pragma solidity ^0.8.12;\r\n\r\ncontract Counter {\r\n    uint256 public counter = 23;\r\n    function increment() public returns (uint256) {\r\n        counter = counter + 1;\r\n        return counter;\r\n    }\r\n    function decrement() public returns (uint256) {\r\n        counter = counter - 1;\r\n        return counter;\r\n    }\r\n}\r\n",
  "sourcePath": "C:\\Users\\Pablo\\Desktop\\DappPrimera\\Counter\\counter-sc\\contracts\\Counter.sol",
  "compiler": {
    "name": "solc",
    "version": "0.8.12+commit.f00d7308.Emscripten.clang"
  },
  "schemaVersion": "3.4.6",
  "updatedAt": "2022-04-12T18:07:36.570Z",
  "networkType": "ethereum",
  "devdoc": {
    "kind": "dev",
    "methods": {},
    "version": 1
  },
  "userdoc": {
    "kind": "user",
    "methods": {},
    "version": 1
  }
}